:0A00000080310228880180318B282E
:1000EE00FE0012001E00FE0B782800346400800112
:1000FE000131890B7E280034013400340134003480
:10010E000134003401340034203084000030850086
:10011E001A3080317D20803183308400803085001C
:10012E003A308600003087000830803177208031E9
:10013E0020008431F02CF200720820009B009A01FE
:10014E008E140630F1002330F000F00BAC28F10BCA
:10015E00AC2820001C15B328911CB628B728B3284C
:10016E001C118E1091100800F200720820009B00E6
:10017E009A010E150630F1002330F000F00BC52861
:10018E00F10BC52820001C15CC28911CCF28D02897
:10019E00CC281C110E1191100800F20072082000DC
:1001AE009B009A018E150630F1002330F000F00B03
:1001BE00DE28F10BDE2820001C15E528911CE8280E
:1001CE00E928E5281C118E1191100800F200720822
:1001DE0020009B009A010E160630F1002330F0002D
:1001EE00F00BF728F10BF72820001C15FE28911CA8
:1001FE0001290229FE281C110E1291100800710807
:10020E00803AFF0080307F02031D0F2901307002FB
:10021E0003181229132918290130F0000030F100BB
:10022E002A297108803AFF0080307F02031D2129A0
:10023E00FC307002031C242925292A29FB30F000EA
:10024E000030F1002A2970082C29080020009601A0
:10025E00970131290D1A34293529312937293729A2
:10026E000D1E3A293B29372918143D290D1A40290C
:10027E0041293D2918101708FA01FA071608F90145
:10028E00F9077A08803AFF00FA307F02031D5129E0
:10029E005F307902031C542955295A295E30F90022
:1002AE007A30FA006D297A08803AFF00C4307F0256
:1002BE00031D6329623079020318662967296D29A7
:1002CE006230F9004430FA006D296D293630F000A5
:1002DE000030F10079089E3EF200BB307A3DF3000B
:1002EE0084310F2481317108FA01FA077008F9017F
:1002FE00F9077908822908002000960197018729BD
:10030E008D1A8A298B2987298D298D298D1E902951
:10031E0091298D29181493298D1A96299729932995
:10032E0018101708FA01FA071608F901F9077A08E2
:10033E00803AFF00FA307F02031DA729D7307902D9
:10034E00031CAA29AB29B029D630F9007A30FA005D
:10035E00C3297A08803AFF00C4307F02031DB929F1
:10036E009E3079020318BC29BD29C3299E30F9009D
:10037E004430FA00C329C3293630F0000030F100B2
:10038E007908623EF200BB307A3DF30084310F24CF
:10039E0081317108FA01FA077008F901F907790835
:1003AE00D8290800200096019701DD290D1BE029B0
:1003BE00E129DD29E329E3290D1FE629E729E329B0
:1003CE001814E9290D1BEC29ED29E9291810170835
:1003DE00FA01FA071608F901F9077A08803AFF00C0
:1003EE00F7307F02031DFD298F307902031C002A8E
:1003FE00012A062A8E30F9007730FA00192A7A0877
:10040E00803AFF00C8307F02031D0F2A3630790272
:10041E000318122A132A192A3630F9004830FA0026
:10042E00192A192A3030F0000030F1007908CA3E3E
:10043E00F200B7307A3DF30084310F248131710818
:10044E00FA01FA077008F901F90779082E2A08004F
:10045E00200096019701332A8D1B362A372A332A1C
:10046E00392A392A8D1F3C2A3D2A392A18143F2A47
:10047E008D1B422A432A3F2A18101708FA01FA0741
:10048E001608F901F9077A08803AFF00FD307F025D
:10049E00031D532ACF307902031C562A572A5C2A91
:1004AE00CE30F9007D30FA006F2A7A08803AFF00CC
:1004BE00C5307F02031D652A2A3079020318682A87
:1004CE00692A6F2A2A30F9004530FA006F2A6F2AFE
:1004DE003930F0000030F1007908D63EF200BA3023
:1004EE007A3DF30084310F2482317108FA01FA0744
:1004FE007008F901F9077908842A08000F302100E5
:10050E009D00892A9D188C2A8D2A892A8E2A1C08DC
:10051E00FB00FC017B082000C2007C08C3000830F1
:10052E00C235C30D890B972A21001B08FB00FC0165
:10053E007B082000C2077C08C33D7A0879040319A2
:10054E00A92AAA2AB22A4308FA01FA074208F9018F
:10055E00F907E32AE32A4208AA074308AB3D23081A
:10056E00803AFF0080307F02031DBF2A0230220234
:10057E00031CC22AC32ADB2A0230F0000030F1002D
:10058E0020002B08F301F3072A08F201F207843149
:10059E000F24823171082000A901A9077008A80153
:1005AE00A807AA01AB01DB2A20002908FA01FA07E5
:1005BE002808F901F907E32A0800273021009D00D9
:1005CE00E82A9D18EB2AEC2AE82AED2A1C08FB00E3
:1005DE00FC017B082000C2007C08C3000830C23535
:1005EE00C30D890BF62A21001B08FB00FC017B08BA
:1005FE002000C2077C08C33D7A0879040319082B32
:10060E00092B112B4308FA01FA074208F901F907E1
:10061E00422B422B4208AE074308AF3D2308803AD7
:10062E00FF0080307F02031D1E2B02302202031CAE
:10063E00212B222B3A2B0230F0000030F10020004B
:10064E002F08F301F3072E08F201F20784310F246D
:10065E00823171082000AD01AD077008AC01AC0706
:10066E00AE01AF013A2B20002D08FA01FA072C0833
:10067E00F901F907422B08002000C201C30109301D
:10068E0021009D009D144B2B9D184E2B4F2B4B2B59
:10069E00502B1C08FB00FC017B082000C4007C08CA
:1006AE00C5000830C435C50D890B592B21001B0818
:1006BE00FB00FC017B082000C4077C08C53D7A08BE
:1006CE00790403196B2B6C2B742B4508FA01FA076E
:1006DE004408F901F907A52BA52B4408A6074508E0
:1006EE00A73D2308803AFF0080307F02031D812B37
:1006FE0002302202031C842B852B9D2B0230F0002E
:10070E000030F10020002708F301F3072608F2015C
:10071E00F20784310F24833171082000A501A5074B
:10072E007008A401A407A601A7019D2B200025088F
:10073E00FA01FA072408F901F907A52B08008131FF
:10074E002D218331FB007B082000B6003A08803152
:10075E00A220833120003C088031BB208331200051
:10076E003E088031D4208331200040088031ED20B6
:10077E008331813183218331FB007B082000B70058
:10078E003A088031A220833120003C088031BB2002
:10079E00833120003E088031D42083312000400870
:1007AE008031ED2083318131D9218331FB007B08EB
:1007BE002000B8003A088031A220833120003C0886
:1007CE008031BB20833120003E088031D42083311C
:1007DE00200040088031ED20833182312F22833179
:1007EE00FB007B082000B9003A088031A22083313B
:1007FE0020003C088031BB20833120003E08803130
:10080E00D4208331200040088031ED208331080050
:10081E00F601F11F132C142C1D2CF009F109F00A0E
:10082E000319F10AF6010314F60D1D2CF31F202CEB
:10083E00212C2B2CF209F309F20A0319F30A0130C9
:10084E00F4007408F6062B2CF701F80171087004F9
:10085E000319322C332C692CF5010314F50D412CA0
:10086E000130F035F10D890B382C0130F40074088D
:10087E00F507412CF11F442C452C372C472C472CC7
:10088E000130F735F80D890B482C71087302031DE2
:10089E00522C70087202031C552C562C5C2C7008BE
:1008AE00F2027108F33B77145C2C0130F136F00C38
:1008BE00890B5D2C0130F502031D662C672C472C2D
:1008CE00692C692C7608031D6D2C732CF709F80919
:1008DE00F70A0319F80A732C7808F101F107770863
:1008EE00F001F0077A2C08003D302000C800E130FE
:1008FE00C7007A30C600C60B822CC70B822CC80BE1
:10090E00822C892C0130F9000030FA008331432308
:10091E0084317A082000B101B1077908B001B0071F
:10092E000130F9000030FA008331432384317A0814
:10093E002000B101B1077908B001B0070130F9000C
:10094E000030FA008231852284317A082000B3010A
:10095E00B3077908B201B2070130F9000030FA008E
:10096E008231852284317A082000B301B3077908D9
:10097E00B201B2070130F9000030FA008231E422F0
:10098E0084317A082000B501B5077908B401B4079F
:10099E000130F9000030FA008231E42284317A0805
:1009AE002000B501B5077908B401B4073108A501D7
:1009BE00A5073008A401A4073308A901A907320826
:1009CE00A801A8073508AD01AD073408AC01AC0786
:1009DE0008007F3021009900F0308D0023008D013A
:1009EE0021008E0114308C00143023008C008030D6
:1009FE0021008E00803023008E0021001D14D33084
:100A0E009E00C23022009700D03021009500403069
:100A1E002000980019309C002100911420009110A4
:100A2E008B012700940195011C2D21001A1E202DEB
:100A3E00212D1C2D222D84317B2484318331A6233C
:100A4E00843185316F25843101302000A2070030BA
:100A5E00A33D0030F9000030FA0083314323843186
:100A6E007A082000A501A5077908A401A407003083
:100A7E00F9000030FA008231852284317A08200094
:100A8E00A901A9077908A801A8070030F9000030CC
:100A9E00FA008231E42284317A082000AD01AD07DC
:100AAE007908AC01AC072308803AFF0080307F0242
:100ABE00031D632D02302202031C662D672D252D8A
:100ACE002000A201A301252D252D252D80310228E0
:100ADE0020002508C301C3072408C201C207290844
:100AEE00C501C5072808C401C4072D08C701C707DB
:100AFE002C08C601C6073608F900FA017908F0007D
:100B0E007A08F100813106218531FB007B08200037
:100B1E00B6003708F900FA017908F0007A08F100FA
:100B2E00813106218531FB007B082000B700380893
:100B3E00F900FA017908F0007A08F10081310621F6
:100B4E008531FB007B082000B8003908F900FA0156
:100B5E007908F0007A08F100813106218531FB0019
:100B6E007B082000B9003808F900FA017908C000A6
:100B7E007A08C1004108BF01BF074008BE01BE0789
:100B8E003F08BD01BD073E08BC01BC073D08BB01C7
:100B9E00BB073C08BA01BA070230F0000030F10082
:100BAE0037087C3EF200FF3003180030F30084312A
:100BBE000F24853170082000C2077108C33D023032
:100BCE00F0000030F1003908803EF200FF300318CB
:100BDE000030F30084310F24853170082000C407E3
:100BEE007108C53D0230F0000030F1003608803E3D
:100BFE00F200FF3003180030F30084310F248531EA
:100C0E0070082000C6077108C73D3008FB3EF9008A
:100C1E00FF30313DFA007A08803AFB004308803AF3
:100C2E007B02031D1C2E4208790203181F2E202E54
:100C3E00362E20003008053EF9000030313DFA0016
:100C4E004308803AFB007A08803A7B02031D312E5E
:100C5E0079084202031C342E352E9C2E362E083077
:100C6E00F0000030F10020003009F9003109FA00DF
:100C7E00F90A0319FA0A42087907F20043087A3D85
:100C8E00F30084310F24853170082000BA077108F3
:100C9E00BB3D0830F0000030F1003009F900310999
:100CAE00FA00F90A0319FA0A42087907F200430812
:100CBE007A3DF30084310F24853170082000BC0783
:100CCE007108BD3D0830F0000030F1003009F90028
:100CDE003109FA00F90A0319FA0A42087907F200F3
:100CEE0043087A3DF30084310F24853170082000CB
:100CFE00BE027108BF3B0830F0000030F100300931
:100D0E00F9003109FA00F90A0319FA0A42087907BB
:100D1E00F20043087A3DF30084310F2485317008C8
:100D2E002000C0027108C13B9C2E20003208FB3E01
:100D3E00F900FF30333DFA007A08803AFB0045088F
:100D4E00803A7B02031DAD2E440879020318B02EA3
:100D5E00B12EC72E20003208053EF9000030333D7B
:100D6E00FA004508803AFB007A08803A7B02031DA0
:100D7E00C22E79084402031CC52EC62E2D2FC72E57
:100D8E000830F0000030F10020003209F90033097C
:100D9E00FA00F90A0319FA0A44087907F20045081D
:100DAE007A3DF30084310F24853170082000BA0299
:100DBE007108BB3B0830F0000030F1003209F90039
:100DCE003309FA00F90A0319FA0A44087907F200FE
:100DDE0045087A3DF30084310F24853170082000D8
:100DEE00C0027108C13B0830F0000030F10032093A
:100DFE00F9003309FA00F90A0319FA0A44087907C7
:100E0E00F20045087A3DF30084310F2485317008D5
:100E1E002000BC077108BD3D0830F0000030F10025
:100E2E003209F9003309FA00F90A0319FA0A4408DB
:100E3E007907F20045087A3DF30084310F2485319D
:100E4E0070082000BE077108BF3D2D2F200034080A
:100E5E00FB3EF900FF30353DFA007A08803AFB0080
:100E6E004708803A7B02031D3E2F4608790203187D
:100E7E00412F422F582F20003408053EF900003034
:100E8E00353DFA004708803AFB007A08803A7B022B
:100E9E00031D532F79084602031C562F572FBE2FC2
:100EAE00582F0830F0000030F10020003409F9000E
:100EBE003509FA00F90A0319FA0A46087907F20009
:100ECE0047087A3DF30084310F24853170082000E5
:100EDE00BA077108BB3D0830F0000030F10034094C
:100EEE00F9003509FA00F90A0319FA0A46087907D2
:100EFE00F20047087A3DF30084310F2485317008E3
:100F0E002000BE077108BF3D0830F0000030F10030
:100F1E003409F9003509FA00F90A0319FA0A4608E4
:100F2E007907F20047087A3DF30084310F248531AA
:100F3E0070082000BC027108BD3B0830F000003084
:100F4E00F1003409F9003509FA00F90A0319FA0A11
:100F5E0046087907F20047087A3DF30084310F24E2
:100F6E00853170082000C0027108C13BBE2F2000E1
:100F7E003B08F101F1073A08F001F0078131062133
:100F8E008531F900FA0179082000BA007A08BB0011
:100F9E003D08F101F1073C08F001F007813106210F
:100FAE008531F900FA0179082000BC007A08BD00ED
:100FBE003F08F101F1073E08F001F00781310621EB
:100FCE008531F900FA0179082000BE007A08BF00C9
:100FDE004108F101F1074008F001F00781310621C7
:100FEE008531F900FA0179082000C0007A08C100A5
:020FFE000800E9
:020000040001F9
:02000E00E4DF2D
:00000001FF
